:100000008331202B080014347E14803120007F08B7
:10001000C2000B1D1E295D08C4005C08C30001302E
:10002000BA000030BB000030BC000030BD004D08FD
:10003000BA074E08BB3D4F08BC3D5008BD3D3D08CA
:10004000D0003C08CF003B08CE003A08CD0001307C
:10005000BA000030BB000030BC000030BD004508D5
:10006000BA074608BB3D4708BC3D4808BD3D3D08B2
:10007000C8003C08C7003B08C6003A08C50001306C
:10008000BA000030BB000030BC000030BD004908A1
:10009000BA074A08BB3D4B08BC3D4C08BD3D3D0876
:1000A000CC003C08CB003B08CA003A08C90001302C
:1000B000BA000030BB000030BC000030BD0023009F
:1000C00028082000BA07230029082000BB3D230090
:1000D0002A082000BC3D23002B082000BD3D3D0820
:1000E0002300AB0020003C082300AA0020003B08AE
:1000F0002300A90020003A082300A8000130A0072F
:100100000030A13D0030A23D0030A33D0130B007DA
:100110000030B13D0030B23D0030B33D2200590304
:10012000031DA8280130D3070030D43D5408200017
:100130006302031D9F282200530820006202031857
:10014000A82863082200D400200062082200D300FF
:1001500022005A03031DC2280130D5070030D63DC6
:10016000560820006302031DB9282200550820000C
:1001700062020318C22863082200D6002000620829
:100180002200D5000B11230034033504031D1E2962
:1001900020004808803ABA005F08803A3A02031DFE
:1001A000DB285E084702031DDB285D084602031DAD
:1001B000DB285C084502031C1E295808BA005908B0
:1001C000BB005A08BC005B08BD004D09BE004E09CB
:1001D000BF004F09C0005009C100BE0A0319BF0A81
:1001E0000319C00A0319C10A3E08BA073F08BB3DFC
:1001F0004008BC3D4108BD3DBD1B0B293D08031D0A
:100200001E293C08031D1E293B08031D1E2904301E
:100210003A0203181E294D09BA004E09BB00BA0A5A
:100220000319BB0A58083A07BC0059083B3DBD00FA
:1002300045083C07C30046083D3DC4002000660851
:10024000031D7E295308031D7E295508031D7E29A1
:100250005008803ABA005B08803A3A02031D3A29F6
:100260005A084F02031D3A2959084E02031D3A2924
:1002700058084D02031C6C2922000D160030200086
:10028000D0000030CF000030CE000030CD00230081
:1002900050035104031D6C292200520825009200CE
:1002A00022005108250091002000D101D201230035
:1002B0005D08A8005E08A900890D893B8909AA008C
:1002C000AB00D001D10120005F08C8005E08C70064
:1002D0005D08C6005C08C5002000D01B7E295008C0
:1002E000031D7C294F08031D7C294E08031D7C2912
:1002F0001E304D02031C7E2922000D1220005503E2
:10030000031DAE292300A31B9D292308031D922949
:100310002208031D92292108031D9229FA30200288
:10032000031C9D2922000D1400302300A30000307F
:10033000A2000030A1000030A000A31BAE292308BA
:10034000031DAC292208031DAC292108031DAC297B
:100350001E302002031CAE2922000D10200055087B
:10036000031D092A5408031D092A4308BA0044083A
:10037000BB000030BB1BFF30BC00BD004808803A0A
:10038000BE003D08803A3E02031DD0293C084702CA
:10039000031DD0293B084602031DD0293A08450217
:1003A000031CED295608031DE0296508F1006408C7
:1003B000F0000130F2000030F30091316C21803107
:1003C00020005D08C4005C08C3000030C800003095
:1003D000C7000030C6000030C500C81B092A480805
:1003E000031DFC294708031DFC294608031DFC29A1
:1003F00014304502031C092A5608031D092A650802
:10040000F1006408F0000030F200F30091316C213B
:10041000803123005D082000BA0023005E08200020
:10042000BB000030BB1BFF30BC00BD0023002B080D
:10043000803A2000BE003D08803A3E022300031DA2
:10044000312A20003C0823002A02031D312A200003
:100450003B0823002902031D312A20003A0823000B
:100460002802031CE32A0030AB000030AA00003051
:10047000A9000030A80020005208803ABA0080305D
:100480003A02031D452A3C305102031C892A2000F0
:10049000D101D201892A5108203E502A5108A03E9C
:1004A00086000330572A5108203E8600043087001A
:1004B00001082300CE00CF01CE1BCF03862A5208AD
:1004C000803ABA0080303A02031D682A1F30510278
:1004D00003186F2A64302300CE000030732A9C304A
:1004E0002300CE00FF30CF00862A5108203E860030
:1004F0000330870001082300CE00CF01CE1BCF03BD
:1005000020000E16A02A2300CE01CF0120000E12DB
:10051000A02A20006108003A03198F2A832A600864
:10052000013A03194B2A033A03194E2A013A0319D7
:10053000532A073A03195F2A013A0319752A832AB5
:1005400023004E082000AE0023004F082000AF001B
:10055000890D893B8909B000B100230036082000CD
:10056000B200230037082000B300890D893B8909B8
:10057000B400B5009031A320803120002F08230063
:10058000CF0020002E082300CE000230F000003003
:10059000F1004F08F3004E08F2009231E922803159
:1005A00071082C009B0070089A0000302300AB00FB
:1005B0000030AA000030A9000030A800013020005F
:1005C000D1070030D23D22005C03031D162B013001
:1005D0002000BA003A082200DB0723005A08803ABC
:1005E000803C031DF62A590822005B02031C142BD1
:1005F00022008D1423005A082000BB002300590854
:100600002000BA00BA35BB0D3B08803ABC008030F0
:100610003C02031D0F2B22005B0820003A02031846
:100620001B2B2200DB011B2B22001A2B5B0803195A
:100630001B2BDB018D1020004208FF007E100900FB
:100640008331222B45308400003085001330FE00BA
:100650000030FF009C31732483315130840001301D
:1006600085000E30FE000030FF009C317324833182
:10067000A0308400013085003930FE000030FF00DA
:100680009C3173248331483084000230850014305B
:10069000FE000030FF009C3173248331A0308400C1
:1006A000023085002C30FE000030FF009C317324A6
:1006B0008331A0308400043085004030FE000030DB
:1006C000FF009C3173248331DB308400833085004C
:1006D000E8308600233087000230FF0008309C316C
:1006E00067248331803103208331FD00AC308400E6
:1006F0009C30850058308600003087000030FF00B5
:1007000012309C31672483317F3084009C30850017
:100710005F308600013087000030FF000E309C31D2
:10072000672483319C3084009C308500D93086005A
:10073000013087000030FF0010309C316724833186
:10074000B33084009D308500203086000230870061
:100750000030FF0028309C3167248331C33084008F
:100760009F30850020308600033087000030FF0076
:100770003D309C3167248331863084009F30850072
:10078000A0308600033087000030FF003D309C31F0
:1007900067248331493084009F30850020308600F3
:1007A000043087000030FF003D309C3167247E100C
:1007B00020008B313E2B22340834FC340734D834EB
:1007C0000734B53407349334073472340734523461
:1007D00007343434073416340734F9340634DD343E
:1007E0000634C2340634A83406348F3406347634E2
:1007F00006345E34063447340634303406341A3452
:10080000063405340634F0340534DC340534C83499
:100810000534B5340534A3340534903405347F34BD
:1008200005346D3405345C3405344C3405343C34C3
:1008300005342C3405341D3405340E340534FF34AE
:100840000434F1340434E2340434D5340434C73489
:100850000434BA340434AD340434A134043494344C
:100860000434883404347D340434713404346634FC
:1008700004345A34043450340434453404343A349F
:10088000043430340434263404341C340434123434
:10089000043409340434FF340334F6340334ED34BF
:1008A0000334E4340334DC340334D3340334CB343E
:1008B0000334C2340334BA340334B2340334AA34B4
:1008C0000334A23403349B340334933403348C3420
:1008D0000334853403347E34033477340334703482
:1008E000033469340334623403345C3403345534E0
:1008F00003344F34033448340334423403343C3437
:10090000033436340334303403342A340334243487
:1009100003341F34033419340334133403340E34D2
:1009200003340934033403340334FE340234F93419
:100930000234F4340234EF340234EA340234E5345D
:100940000234E0340234DB340234D7340234D2349B
:100950000234CD340234C9340234C4340234C034D5
:100960000234BC340234B7340234B3340234AF340A
:100970000234AB340234A6340234A23402349E343E
:1009800002349A34023497340234933402348F346C
:1009900002348B3402348734023484340234803499
:1009A00002347C34023479340234753402347234C3
:1009B00002346E3402346B340234673402346434EB
:1009C0000234613402345E3402345A34023457340F
:1009D000023454340234513402344E3402344B3431
:1009E00002344834023445340234423402343F3451
:1009F00002343C3402343934023436340234333471
:100A00000234303402342E3402342B34023428348D
:100A100002342534023423340234203402341E34A8
:100A200002341B34023418340234163402341334C2
:100A30000234113402340E3402340C3402340A34D9
:100A400002340734023405340234023402340034F0
:100A50000234FE340134FB340134F9340134F73408
:100A60000134F5340134F2340134F0340134EE341D
:100A70000134EC340134EA340134E8340134E6342E
:100A80000134E3340134E1340134DF340134DD3442
:100A90000134DB340134D9340134D7340134D53452
:100AA0000134D3340134D2340134D0340134CE345F
:100AB0000134CC340134CA340134C8340134C6346E
:100AC0000134C4340134C3340134C1340134BF347B
:100AD0000134BD340134BC340134BA340134B83487
:100AE0000134B6340134B5340134B3340134B13493
:100AF0000134B0340134AE340134AC340134AB349D
:100B00000134A9340134A8340134A6340134A434A6
:100B10000134A3340134A1340134A03401349E34AF
:100B200001349D3401349B3401349A3401349834B7
:100B300001349734013495340134943401349234BF
:100B4000013491340134903401348E3401348D34C5
:100B500001348B3401348A340134893401348734CC
:100B600001348634013485340134833401348234D1
:100B70000134813401347F3401347E3401347D34D6
:100B800001347B3401347A340134793401347834DB
:100B900001347634013475340134743401347334DF
:100BA000013471340134703401346F3401346E34E3
:100BB0000134003400340034003400340034003494
:100BC0000034003400342100C40120001018EE2D40
:100BD00057080319F82D0130D702F82D19305702A4
:100BE0000318F82D01302100BC003C082000D70775
:100BF0005708031DAD2FCC1B802E4C08031D092E5A
:100C00004B08031D092E1B30490206304A3B031CCA
:100C1000802E22005D030319472EDD01DD0A00301E
:100C20002000CC000030CB000030CA000030C900EA
:100C300001302300E3000030E4000030AF0000305A
:100C4000AE000030AD000030AC00DB01DC01210063
:100C5000C401C40A440820006702031C472E210077
:100C60004408BC000130BC35FF3E031D332E3C352B
:100C7000483E8600023087000030C03F0030C13F50
:100C8000C23FC33F0130BC003C08C4072A2E2200EB
:100C90005A08031D522EDA01DA0A2000E60122006A
:100CA000D501D6012000630822005602031D5C2EE8
:100CB0002000620822005502031C0800200066087C
:100CC000031D08005308031D080063082200D60016
:100CD000200062082200D5000D1259030319782E56
:100CE00001302100A0000030A1009D313125080015
:100CF00001302100B8000030B900903125200800F3
:100D00002000CC1B8F2E4C08031D08004B08031D30
:100D100008001B30490206304A3B031808006608E9
:100D2000031D080022005D0303190800DD01DD0A30
:100D30002000CC1BAF2E4C08031DA72E4B08031D13
:100D4000A72E9430490204304A3B031CAF2E0030DA
:100D5000CC000030CB000430CA009430C9006708D2
:100D60002100BC00BD013C08C2003D08C3002300B7
:100D70006408803A803C031DC02E6308200067028F
:100D8000031CF12E200049082300AC0720004A086C
:100D90002300AD3D20004B082300AE3D20004C0851
:100DA0002300AF3D63082100BC000130BC35FF3E8D
:100DB000031DD62E3C35483E8600023087002000B9
:100DC0004908C03F4A08C13F4B08C23F4C08C33FD7
:100DD000230064082100C300230063082100C2002F
:100DE0006D2F00302300AF000030AE000030AD00AA
:100DF0000030AC002100C401C40A200067082100B3
:100E000044020318472F4408BC000130BC35FF3EA4
:100E1000031D062F3C35043E483E86000230870005
:100E2000403FBD00413FBE00423FBF00433FC000C6
:100E30004408C1000130C135FF3E031D1B2F413561
:100E4000483E8600023087003D08C03F3E08C13F53
:100E50003F08C23F4008C33F4408BC000130BC35D6
:100E6000FF3E031D2F2F3C35483E86000230870091
:100E7000403F2300AC07413FAD3D423FAE3D433FC5
:100E8000AF3D01302100BC003C08C407FD2E20000E
:100E900067082100BC000130BC35FF3E031D4C2F0C
:100EA0003C35483E86000230870020004908C03F9C
:100EB0004A08C13F4B08C23F4C08C33F49082300C2
:100EC000AC0720004A082300AD3D20004B0823005A
:100ED000AE3D20004C082300AF3D21004208A00099
:100EE0004308A100890D893B8909A200A3002300C2
:100EF0002F082100A70023002E082100A6002300B0
:100F00002D082100A50023002C082100A400953104
:100F10009625210023082000DB0021002208200064
:100F2000DA00210021082000D9002100200820003B
:100F3000D80001302300DB000030DC00003020004E
:100F4000CC000030CB000030CA000030C9000130B6
:100F50002300E3070030E43D080019302000570269
:100F6000031C08002200DD01EC0100302100A0007C
:100F7000A1009D3131252200D501D601DA011930B9
:100F80002100BC003C082000D70008002100A6007A
:100F9000063026020318E22F2608A400A501240823
:100FA000A0002508A1000130A2000030A300933169
:100FB0008C23873106302100A0000030A1009F3132
:100FC0000E27080006302100A0000030A1000130EB
:100FD000A2000030A30093318C2387312100260822
:100FE000A400A501A409A509A40A0319A50A2408B7
:100FF0000B3EA0000030253DA1009F310E270800C8
:101002002100951295111510951415110800210053
:101012006708EB006808EC006908ED0003106C0D2E
:101022006D0DEE006E082200A5002508031D232881
:1010320000302100EA000030E9000030E800003012
:10104200E700080021006708EB006808EC00690867
:10105200ED001730ED36EC0CEB0C890B2B286B08EE
:10106200EE006E082200A0002100E817FF30E7051D
:10107200FF30E8050030E90567082200A1002100E1
:1010820068082200A200210069082200A300A4012E
:101092008E30A502A51F6D282508803A8F3E0318C1
:1010A2005C2800302100EA000030E9000030E8004E
:1010B2000030E700080001302200A436A30CA20C85
:1010C200A10C890B5D2801302100EB006B08220086
:1010D200A507031989285C2818302502031C8528D6
:1010E20000302100EA000030E9000030E800003062
:1010F200E700080001302200A135A20DA30DA40DC6
:10110200890B7C280130A50222002508031D7B28BB
:10111200200803199728A109A209A309A409A10A71
:101122000319A20A0319A30A0319A40A2408210015
:10113200EA00220023082100E900220022082100FF
:10114200E800220021082100E70008002300B40182
:10115200B50122003708C1003608C0000030BD00CA
:101162008030BE003F30BF00CF280030BD0040308D
:10117200C128A630BD002A30C1280030BD00003091
:10118200BE003F30CD28A630BD00AA30CB280030AB
:10119200BD008030BE003E30BF00E8283908003A6A
:1011A2000319D428E8283808013A0319B628033A63
:1011B2000319BA28013A0319BE28073A0319C428A9
:1011C200013A0319C828033A0319E828E828410814
:1011D2002100A900220040082100A8009D316B25B2
:1011E200883121002808B8002908B9002A08BA0065
:1011F20022003D082100B50022003E082100B60071
:1012020022003F082100B70097314C278831210086
:101212003508E7003608E8003708E9008831082079
:101222008831210068082200C100210067082200DD
:10123200C00041082100A900220040082100A800A6
:101242009D316B258831210028082200AE00210043
:1012520029082200AF0021002A082200B0009331A1
:101262003A23883122002E08BA002F08BB0030082A
:10127200BC0041082100A900220040082100A8006A
:101282009D316B25883121002A0822003C06031D6E
:1012920054292100290822003B06031D542921005C
:1012A200280822003A0603195B2901302300B40002
:1012B2000030B50022004108B7004008B60008001F
:1012C20020009018772923005308803A2100BC009F
:1012D20080303C02031D7029013023005202031C9E
:1012E2008A29FF302300D207FF30892923005308BF
:1012F200803A2100BC0080303C02031D8329193052
:101302002300520203188A2901302300D207003039
:10131200D33D230052085304031DEB292200590830
:10132200031D9729D901D90AD301D40120006308EA
:1013320022005402031DA129200062082200530248
:10134200031CC0296A08031DC02920005308031D7D
:10135200C02922000D115A030319B82901302100B6
:10136200A0000030A1009D3117258931C02901302C
:101372002100B8000030B9009031252089312000C9
:101382005308031DE72922006A08031DE7292000EC
:101392006903031DD82923005F036004031DE729A5
:1013A200E601E60A0130D4000030D500E729220028
:1013B20058030319E7292300E6012200D801D80ABD
:1013C2002300D401D5012200EA01D9012300DF0163
:1013D200E00108005308803A2100BC0080303C0242
:1013E200031DF629193023005202031C08002000B5
:1013F2005303031D052A230066082100BC00BD011A
:101402003C08B2003D08212A22005803031D6A034A
:10141200031D112A01302100B2000030B300222A3C
:10142200230054035504031D252A22006A08031DC4
:10143200252A20005308031D252A00302100B2006E
:10144200B3009131B42189312000690C2200031CC0
:101452000D1103180D1500302100A000A1009D31CF
:101462001725893100302100B800B90090312520BC
:101472002200D901D8012300D401D5010130DF00B7
:101482000030E0001930D2000030D3000800210003
:101492002808AE002908AF002A08B00003102F0D5B
:1014A200300DB1003108B4002B08AE002C08AF009B
:1014B2002D08B00003102F0D300DB1003108B3001C
:1014C20034080319702A330834020318772A3403C4
:1014D200FF3A3307AE0019302E02031C772A2B087D
:1014E200A8002C08A9002D08AA0008003308031937
:1014F2000800340833020318862A3303FF3A3407FC
:10150200AE0019302E02031808000630AE002E0875
:10151200B200AA1BB217AD1B3217A917FF30A805DC
:10152200FF30A9050030AA05AC17FF30AB05FF302C
:10153200AC050030AD05330834020318C22A01306D
:10154200AB35AC0DAD0D890BA12A0130B3023308C6
:1015520034060319BD2A0130B202320807390319D1
:10156200BD2AA02A0130AA36A90CA80C890BB42ADC
:101572000130AE002E08B407340833060319E72AF7
:10158200B32A340833020318E72A0130A835A90D1B
:10159200AA0D890BC72A0130B40233083406031995
:1015A200E32A0130B202320807390319E32AC62AB4
:1015B2000130AD36AC0CAB0C890BDA2A0130AE002F
:1015C2002E08B30734083306031DD92AB21FF92A9D
:1015D200FF30A806FF30A906FF30AA060130A8078F
:1015E200003003180130A907003003180130AA07A0
:1015F200321F0B2BFF30AB06FF30AC06FF30AD06BF
:101602000130AB07003003180130AC07003003187B
:101612000130AD07B2012808AB072908AC3D2A0802
:10162200AD3DAD1F262BFF30AB06FF30AC06FF30C1
:10163200AD060130AB07003003180130AC070030B3
:1016420003180130AD07B201B20A2B08A0002C0822
:10165200A1002D08A2003408AE002E08A300320813
:10166200AF002F08A4009431392421002008A800DB
:101672002108A9002208AA00080028302300E90056
:101682000030EA009C3143248B319E310A268B3193
:101692002000101490140F178F160E148F179D31FF
:1016A2008D258B319C318D248B3194319E248B314D
:1016B2009E319C268B319331E0238B31893161211C
:1016C2008B31200055030319692B8531E3258B31BA
:1016D200200055030319782B540822006B060319C6
:1016E200782B913125218B31923149228B31003077
:1016F2009C31BE248B31210021082300C50021002A
:1017020020082300C40001309C31BE248B3121000B
:1017120021082300C700210020082300C600023050
:101722009C31BE248B31210021082300C9002100F5
:1017320020082300C80003309C31BE248B312100D5
:1017420021082300CB00210020082300CA00043016
:101752009C31BE248B31210021082300CD002100C1
:1017620020082300CC000530200060066104031924
:10177200462C22005F09C2006009C300C20A031995
:10178200C30A2300440822004207C400230045087C
:101792002200433DC5004508803AC600803046021B
:1017A200031DD52B043044020318F42B22005F09D9
:1017B200C2006009C300C20A0319C30A2300440815
:1017C20022004207C400230045082200433DC50011
:1017D2004508803AC6007F304602031DF22BFD30D9
:1017E20044020318462C230045082200E00023008F
:1017F20044082200DF0000302100E1004830E2000E
:101802004330E3008030DE009230DF004430E000FD
:10181200C030DB007F30DC004430DD000030D80017
:101822000030D9000030DA00220060082100A9004F
:1018320022005F082100A8009D316B258B31210019
:101842002808D5002908D6002A08D700963118267C
:101852008B3121005508E7005608E8005708E900D7
:10186200883108208B31210067082000D800210030
:1018720068082000D900890D893B8909DA00DB005C
:1018820001302300DB000030DC0022006109C200CD
:101892006209C300C20A0319C30A230046082200D0
:1018A2004207C400230047082200433DC500450803
:1018B200803AC60080304602031D612C0430440287
:1018C2000318802C22006109C2006209C300C20A07
:1018D2000319C30A2300460822004207C40023005A
:1018E20047082200433DC5004508803AC6007F30C4
:1018F2004602031D7E2CFD3044020318EE2C230009
:1019020047082200E200230046082200E1000030DE
:101912002100E1001C30E2004230E3000030DE0032
:101922000030DF000030E000C030DB007F30DC0040
:101932004430DD000030D8000030D9000030DA0039
:10194200220062082100A900220061082100A800EB
:101952009D316B258B3121002808D5002908D6003E
:101962002A08D700963118268B3121005508E70046
:101972005608E8005708E900883108208B31210019
:1019820068082400DD00210067082400DC005C08F0
:10199200013EFF3A013E23006907203E86000230E5
:1019A200870001082200C200C301420825009800F6
:1019B200220043082500990024005C08203E86008E
:1019C2000230870001082200C200C301420826003B
:1019D2009100220043082600920005302000600694
:1019E2006104031D572D2200630A033003196406A4
:1019F2000319682EFF30E3000330E40000302100B9
:101A0200E1000030E2000030E3000030DE00803010
:101A1200DF004130E000C030DB007F30DC004430CA
:101A2200DD000030D8000030D9000030DA0022009A
:101A320064082100A900220063082100A8009D314A
:101A42006B258B3121002808D5002908D6002A08E9
:101A5200D700963118268B3121005508E700560829
:101A6200E8005708E900883108208B312100680816
:101A72002400DF00210067082400DE005E08013E2A
:101A8200FF3A013E23006907203E860002308700AC
:101A920001082200C200C301420826009800220069
:101AA20043082600990024005E08592E22006A038A
:101AB200031DBC2D630864040319682EE301E401CD
:101AC2002300D601D60A00302100E1000030E200F6
:101AD2000030E3000030DE00C830DF004130E000BB
:101AE200C030DB007F30DC004430DD000030D80045
:101AF2000030D9000030DA00220064082100A90079
:101B0200220063082100A8009D316B258B31210042
:101B12002808D5002908D6002A08D70096311826A9
:101B22008B3121005508E7005608E8005708E90004
:101B3200883108208B31210068082400E10021004F
:101B420067082400E0006008013EFF3A013E2300DE
:101B52006907203E86000230870001082200C20089
:101B6200C30142082600980022004308260099007B
:101B720024006008592E22006309C2006409C300D0
:101B8200C20A0319C30A2300480822004207C400FC
:101B9200230049082200433DC5004508803AC6009B
:101BA20080304602031DD72D043044020318FA2D5B
:101BB20022006309C2006409C300C20A0319C30AEE
:101BC2002300480822004207C400230049082200DB
:101BD200433DC5004508803AC6007F304602031DDA
:101BE200F42DFD304402031CFA2D23005603031D7D
:101BF200682E230049082200E4002300480822003E
:101C0200E30000302100E1000030E2000030E30098
:101C12000030DE009030DF004130E000C030DB00F9
:101C22007F30DC004430DD000030D8000030D900C5
:101C32000030DA00220064082100A90022006308B3
:101C42002100A8009D316B258B3121002808D50089
:101C52002908D6002A08D700963118268B31210090
:101C62005508E7005608E8005708E90088310820BF
:101C72008B31210068082400E3002100670824005A
:101C8200E2006208013EFF3A013E23006907203E5E
:101C920086000230870001082200C200C301420808
:101CA20026009800220043082600990024006208BA
:101CB200203E86000230870001082200C200C301D4
:101CC200420826009C002200430826009D002200B4
:101CD2006509C2006609C300C20A0319C30A2300C8
:101CE2004A0822004207C40023004B082200433D59
:101CF200C5004508803AC60080304602031D832E87
:101D0200043044020318A22E22006509C2006609AB
:101D1200C300C20A0319C30A23004A082200420769
:101D2200C40023004B082200433DC5004508803A09
:101D3200C6007F304602031DA02EFD304402031868
:101D4200EA2E23004B082200E60023004A08220064
:101D5200E50000302100E1003C30E2004230E300C7
:101D62000030DE004030DF004030E000C030DB00F9
:101D72007F30DC004430DD000030D8000030D90074
:101D82000030DA00220066082100A900220065085E
:101D92002100A8009D316B258B3121002808D50038
:101DA2002908D6002A08D700963118268B3121003F
:101DB2005508E7005608E8005708E900883108206E
:101DC2008B31210068082300DE0021006708230010
:101DD200DD0022006709C2006809C300C20A0319B4
:101DE200C30A23004C0822004207C40023004D0806
:101DF2002200433DC5004508803AC60080304602B5
:101E0200031D052F043044020318242F2200670902
:101E1200C2006809C300C20A0319C30A23004C089E
:101E220022004207C40023004D082200433DC500A2
:101E32004508803AC6007F304602031D222FFD303E
:101E4200440203186C2F23004D082200E8002300EF
:101E52004C082200E70000302100E1000030E200DF
:101E62000030E3006030DE009F30DF004430E000ED
:101E7200C030DB007F30DC004430DD000030D800B1
:101E82000030D9000030DA00220068082100A900E1
:101E9200220067082100A8009D316B258B312100AB
:101EA2002808D5002908D6002A08D7009631182616
:101EB2008B3121005508E7005608E8005708E90071
:101EC200883108208B31210068082300B7002100E7
:101ED20067082300B60023005B035C04031D592B33
:101EE20020005B08DF005A08DE005908DD005808B0
:101EF200DC0059082200B700200058082200B60072
:101F0200200065082200B900200064082200B80001
:101F12008831A7208B31220036082000DC00220005
:101F220037082000DD00890D893B8909DE00DF00CA
:101F320001302300D0000030D100C001C1012200D5
:101F4200D101D201230040084104031DFD2F2200CC
:101F52005208C3005108C200C235C30DE830C400A4
:101F62002330C5004208440786004308453D8700E8
:101F7200403FC600413FC7004608C8004708C900A5
:101F82000030C91BFF30CA00CB0020005C082200D1
:101F9200CC0020005D082200CD0020005E08220057
:101FA200CE0020005F082200CF000130CC35CD0DDD
:101FB200CE0DCF0D890BD72F4F08803AD0004B089A
:101FC200803A5002031DEF2F4A084E02031DEF2FE5
:101FD20049084D02031DEF2F48084C02031CF72F3E
:101FE20001302300C0000030C100A32F01302200C5
:0E1FF200D1070030D23DA32FDB01DC01592BBB
:10200400182822008D100D109C31FD240800220098
:102014008D100D14200068088731C627080022009F
:102024008D140D1069089C31E52408002000540823
:10203400003A03190328013A03190928033A03193A
:10204400112824280800200053082100BA00BB01ED
:1020540039083B06031D302838083A0603190800DE
:102064003808BA003A082000D300210038033904A4
:10207400031D3F2822000D128D1220005303031D5F
:102084005B285508031D5028D501D50A22008D1060
:10209400200068088731C62790315B282000D501CD
:1020A4009031022090319C31FD2490319C31D12417
:1020B400903114302100AC000030AD009E316A260E
:1020C40008001E302100B2003208B4006430A000C1
:1020D4000030A1000130A2000030A30093318C2312
:1020E400903164302100A0000030A1009F310E2700
:1020F400903121003408B200B3013208AC00330837
:10210400AD009E316A26903100302100A000A1006C
:102114000130A2000030A30093318C2390310030B1
:102124002100A000A1009F310E2790312100340826
:10213400B200B3013208AC003308AD009E316A2608
:10214400080000302000A3000030A2000330A100EA
:10215400E830A0000C30B600F230B7000130B8000F
:102164000030B9003508F3003408F2003308F100F8
:102174003208F0003108F7003008F6002F08F500A7
:102184002E08F4009D31DB25903170082000B6073D
:102194007108B73D7208B83D7308B93D3908A70006
:1021A4003808A6003708A5003608A4009531142580
:1021B40020002308B1002208B0002108AF00200845
:1021C400AE00080022001D1021000E118E10260002
:1021D4000D108D110D122100101390121012901178
:1021E40010110F30250093040F309A040F3026008D
:1021F40093040F309A040F309E040F302C00930484
:102204000F3096040F3099040F309C040F309F0454
:1022140025009D019E019F01003092003230910003
:102224000030990064309800003026009200963007
:10223400910000309900C83098009C314B249031B3
:1022440088310120080020000F1B2F292200570885
:1022540003193A290130D7023A29193022005702CA
:1022640003183A2901302100B20032082200D707AE
:102274005708031D080020006008013EE0000030FC
:10228400613DE1006108803A2100B20080303202F1
:10229400031D4F29073020006002031C562901301A
:1022A4002000E0000030E100200061082100A100CE
:1022B400200060082100A0009F310E2791312000EA
:1022C4000F1F612914302100AC000030AD009E3195
:1022D4006A26080027000C108C100C118C110C12AB
:1022E4009729720C031C0C1003180C140800720CB0
:1022F400031C8C1003188C140800720C031C0C11A2
:1023040003180C150800720C031C8C1103188C158F
:102314000800720C031C0C1203180C1608000C1491
:102324008C140C158C150C1608007108003A03194E
:102334009C29B3297008013A03197329033A031934
:102344007929013A03197F29073A03198529013AA2
:1023540003198B29033A0319B329623A0319912902
:10236400B3290800200069082100B400B50133082E
:102374003506031DBF293208340603190800320844
:10238400B40034082000E9002100320C2200031CB0
:102394000D1103180D158D112100320C2700031C9B
:1023A4000D1103180D15210032083304031DDD2916
:1023B40027008D14DF2927008D1014302100AC0074
:1023C4000030AD009E316A26913127000D118D1029
:1023D400200069082100B400B5013408A0003508C4
:1023E400A10080310220913114302100AC00003072
:1023F400AD009E316A2608002200AD018E30AA008D
:102404002A08AC00A91F132AA609A709A809A90923
:10241400A60A0319A70A0319A80A0319A90AAD01F0
:10242400AD0AFF3029050319232A0130A936A80C67
:10243400A70CA60C890B182A0130AA002A08AC079D
:10244400132A26082100A000220027082100A10049
:10245400220028082100A20022002C08AA002A0831
:102464002100A30022002D08AB002B082100A400AA
:1024740094313924210020082200A60021002108DB
:102484002200A700210022082200A8000800200042
:102494008F1A532A22005E0803195E2A0130DE02D5
:1024A4005E2A193022005E0203185E2A01302100E0
:1024B400B20032082200DE075E08031D0800200077
:1024C4006408013EE4000030653DE5006508803A9B
:1024D4002100B20080303202031D732A073020002D
:1024E4006402031C7A2A01302000E4000030E50075
:1024F400200065082100A100200064082100A0003C
:102504000130A2000030A30093318C2392310130BA
:102514002300DB000030DC0020008F1E8E2A1430E4
:102524002100AC000030AD009E316A260800013065
:102534002100B3000030B4003408803AB200803087
:102544003202031DA72A073033020318CD2A2100C3
:102554003408A1003308A0000130A2000030A30019
:1025640093318C23923105302100AC000030AD0052
:102574009E316A26923101302100B3070030B43D08
:102584003408803AB20080303202031DCB2A07306F
:102594003302031CA92A05302100B5000030B6001F
:1025A400B61B08003608A1003508A0009F310E278D
:1025B400923105302100AC000030AD009E316A2616
:1025C4009231FF302100B507FF30B63DD22AF60123
:1025D400F11FF32AF009F109F00A0319F10AF601CF
:1025E400F60AF31FFE2AF209F309F20A0319F30AA1
:1025F4000130F4007408F606F701F801700871045C
:1026040003192D2BF501F50AF11B122B0130F035BE
:10261400F10D890B092B0130F4007408F507062B22
:102624000130F735F80D890B132B71087302031D64
:102634001D2B70087202031C242B7008F20271080F
:10264400F33B77140130F136F00C890B252B013064
:10265400F502031D122B76080319352BF709F80927
:10266400F70A0319F80A7808F1007708F00008005F
:1026740022002E082100A00022002F082100A10022
:10268400220030082100A2003430EF006F08A300BC
:102694009E31D42693312200B51F572B0030AE0053
:1026A4000030AF000030B0000800003035021530B3
:1026B40003193402031808002E082100E700220041
:1026C4002F082100E800220030082100E9008831A9
:1026D4000820933121006A082200A900210069081A
:1026E4002200A800210068082200A7002100670832
:1026F4002200A6009131FE2122002608B1002708FD
:10270400B2002808B3003108AE003208AF00330825
:10271400B000080027000C108C100C118C110C1246
:10272400C22B2100220C2700031C0C1003180C14CC
:1027340008002100220C2700031C8C1003188C14A1
:1027440008002100220C2700031C0C1103180C158F
:1027540008002100220C2700031C8C1103188C157F
:1027640008002100220C2700031C0C1203180C166D
:10277400080027000C148C140C158C150C1608007A
:1027840021002108003A0319C82BDF2B2008013A45
:102794000319932B033A03199B2B013A0319A32B17
:1027A400073A0319AB2B013A0319B32B033A031964
:1027B400DF2B623A0319BB2BDF2B080020005408DF
:1027C400031DE72B5503031D08008F1B352C013017
:1027D4002300BC070030BD3D3D08803A2100A7001E
:1027E40080302702031DF92B1A3023003C02031CFE
:1027F400080019302300BC000030BD00200054083C
:1028040022006B0603190A2C20005503031D1B2C00
:1028140001302100A70027082000E8070B306802D8
:10282400031C162CE801E80A68088731C62793318F
:10283400312C2000540823006806031D312C01307C
:102844002100A70027082200E90706306902031CBB
:102854002D2CE901E90A69089C31E5249331200013
:102864008F1B0800312C2300BC01BD01080021008E
:1028740023080319422C220821042004031D532C8D
:102884000030A0000030A1000030A2000800013098
:10289400A5002508A3070130A236A10CA00C890BC2
:1028A4004E2CFE30220503196C2C492C0130A50056
:1028B4002508A3070130A007003003180130A10741
:1028C400003003180130A2070130A236A10CA00C7D
:1028D400890B672CFF3022050319792C582C013001
:1028E400A3020130A035A10DA20D890B742CA11BEC
:1028F4007F2C023023020318712C2318872CFF30FD
:10290400A0057F30A105FF30A2050310A30C230806
:10291400A500A601A7011030A535A60DA70D890BAA
:102924008E2C2508A0042608A1042708A204240844
:1029340003190800A217080081302100A0001F30ED
:10294400A1009D314B259431210021082000E50090
:10295400210020082000E40082302100A0001F3064
:10296400A1009D314B259431210021082000E10074
:10297400210020082000E0006508803A2100A4001E
:1029840080302402031DC92C073020006402031C7C
:10299400D02C06302000E4000030E500200061085F
:1029A400803A2100A40080302402031DDC2C07306F
:1029B40020006002031CE32C06302000E0000030FD
:1029C400E10020006908031DEA2C27008D14EC2C7B
:1029D40027008D102000690C2700031C0D1103181B
:1029E4000D1522000D118D110D128D128D100D106B
:1029F400200065082100A100200064082100A00037
:102A04000130A2000030A30093318C2394312000C4
:102A140061082100A100200060082100A0009F316E
:102A24000E2708002000A901A31F252DA009A10934
:102A3400A209A309A00A0319A10A0319A20A0319E6
:102A4400A30AA901A90AA71F362DA409A509A60945
:102A5400A709A40A0319A50A0319A60A0319A70AB0
:102A64000130FC007C08A9060030AD000030AC0049
:102A74000030AB000030AA00230822042104200403
:102A840003197F2DA801A80AA31B542D0130A035DA
:102A9400A10DA20DA30D890B492D0130FC007C086A
:102AA400A807462D0130AA35AB0DAC0DAD0D890B31
:102AB400552D23082702031D692D22082602031D14
:102AC400692D21082502031D692D20082402031CF9
:102AD400742D2008A4022108A53B2208A63B230844
:102AE400A73B2A140130A336A20CA10CA00C890B1D
:102AF400752D0130A802031D542D290803198D2DAD
:102B0400AA09AB09AC09AD09AA0A0319AB0A03194E
:102B1400AC0A0319AD0A2D08A3002C08A2002B0847
:102B2400A1002A08A00008002100AA01A31FA72DC4
:102B3400A009A109A209A309A00A0319A10A03195A
:102B4400A20A0319A30AAA01AA0AA71FB82DA40955
:102B5400A509A609A709A40A0319A50A0319A60A1F
:102B64000319A70A0130A8002808AA060030AE00FD
:102B74000030AD000030AC000030AB00230822046C
:102B8400210420040319012EA901A90AA31BD62D8F
:102B94000130A035A10DA20DA30D890BCB2D013061
:102BA400A8002808A907C82D0130AB35AC0DAD0D20
:102BB400AE0D890BD72D23082702031DEB2D220808
:102BC4002602031DEB2D21082502031DEB2D2008F1
:102BD4002402031CF62D2008A4022108A53B220888
:102BE400A63B2308A73B2B140130A336A20CA10C4F
:102BF400A00C890BF72D0130A902031DD62D2A083C
:102C040003190F2EAB09AC09AD09AE09AB0A0319C0
:102C1400AC0A0319AD0A0319AE0A2E08A3002D0845
:102C2400A2002C08A1002B08A000080021005B08CA
:102C3400A8005C08A9005D08AA005808A00059086B
:102C4400A1005A08A2009C31542496312100200886
:102C5400AB002108AC002208AD008A31482296312D
:102C640021002808C5002908C6002A08C7006108F1
:102C7400A8006208A9006308AA005E08A0005F0813
:102C8400A1006008A2009C31542496312100200840
:102C9400AB002108AC002208AD008A3148229631ED
:102CA40021002808B5002908B6002A08B7005508ED
:102CB400A8005608A9005708AA005808A0005908F7
:102CC400A1005A08A2009C31542496312100200806
:102CD400AB002108AC002208AD008A3148229631AD
:102CE40021002808B8002908B9002A08BA00973139
:102CF4004C27963121003508C8003608C90037082A
:102D0400CA009631A326963121004508E4004608FE
:102D1400E5004708E6005E08A8005F08A90060080F
:102D2400AA006408AB006508AC006608AD008A31EF
:102D3400482221002808D5002908D6002A08D700EF
:102D4400080021004808CB004908CC004A08CD00FF
:102D540003104C0D4D0DCE004E08D3005308031D37
:102D6400BA2E0030C5000030C6000030C70008008D
:102D74004508CB004608CC004708CD0003104C0D95
:102D84004D0DCE004E08D4005408031DD02E003043
:102D9400C5000030C6000030C70008000030D00075
:102DA4000030D1000030D20089305407CB004B08EA
:102DB400D3024808CB004908CC004A08CD001030A3
:102DC400CD36CC0CCB0C890BE22E4B08CE004E0832
:102DD400D4004508CB004608CC004708CD0010308D
:102DE400CD36CC0CCB0C890BF22E4B08CE004E0802
:102DF400D4068030CB004B08D405C917FF30C80572
:102E0400FF30C9050030CA05C617FF30C505FF30BD
:102E1400C6050030C7051830CB004B08CF00013081
:102E2400D035D10DD20D890B122F47084A02031D4C
:102E3400212F46084902031D212F45084802031C7F
:102E44002A2F4508C8024608C93B4708CA3B501404
:102E54000130C835C90DCA0D890B2B2F0130CF02A3
:102E6400031D112F5008A0005108A1005208A20010
:102E74005308CB004B08A3005408CC004C08A40012
:102E84009431392421002008C5002108C6002208F5
:102E9400C700080021003508BB003608BC0037080D
:102EA400BD0003103C0D3D0DBE003E08BF003F08B1
:102EB400031D632F0030B5000030B6000030B700AA
:102EC40008003808BB003908BC003A08BD000310EC
:102ED4003C0D3D0DBE003E08C4004408031D792F7F
:102EE4000030B5000030B6000030B70008004408D8
:102EF4007B3EBB003B08BF073508BB003608BC005F
:102F04003708BD001030BD36BC0CBB0C890B852FB7
:102F14003B08BE003E08C4003808BB003908BC00AA
:102F24003A08BD001030BD36BC0CBB0C890B952F84
:102F34003B08BE003E08C4068030BB003B08C40505
:102F4400B617B917FF30B805FF30B9050030BA0518
:102F54000030C0000030C1000030C2000730BB00A8
:102F64003B08C300351CBC2F3808C0073908C13DD5
:102F74003A08C23D0130B736B60CB50C890BBD2FEB
:102F84000130B835B90DBA0D890BC32F0130C30216
:102F9400031DB42F0930BB003B08C300351CD82FD8
:102FA4003808C0073908C13D3A08C23D0130B73678
:102FB400B60CB50C890BD92F0130C236C10CC00C2C
:102FC400890BDF2F0130C302031DD02F4008A0005E
:102FD4004108A1004208A2003F08BB003B08A3002F
:102FE4004408BC003C08A400943139242100200882
:0C2FF400B5002108B6002208B700080054
:10388600FC302100990508002100A001A1010800D3
:10389600873020009C05FC309C05FF309B001C15E2
:1038A60008002100220821042004031908008030A2
:1038B600A206080021009E171E088F3960389E0058
:1038C600FC309E051D140800FE0012001E0001308B
:1038D600FE020030FF3B7F087E0403190034682C8B
:1038E6006400800101310130FE020030FF3B7F0899
:1038F6007E0403190034742CD0340734D0340734D2
:10390600D0340734D0340734D03407340134FF348C
:103916000134FF349C3147249C3121002108B70033
:103926002008B6003708B3003608B2009131B4213A
:1039360008006434003401340034D03407340134D0
:103946000034B4340034013400340134FF34FF341D
:103956000234D034073400340034D0340734003411
:10396600003406340034E834033406340034FF34BB
:1039760004340134FF342100A3002308A200A20D61
:10398600A20D1D082206833922069D009D149D184E
:10399600CA2C1C08A1001B08A00008000130210049
:1039A600B70037082000D600923199229C31923117
:1039B60099229C31903163209C3190316320200004
:1039C600D60108002100A6002608A400A5012408A7
:1039D600A0002508A1000130A2000030A300933109
:1039E6008C239C3106302100A0000030A1009F31BD
:1039F6000E270800200065082100A10020006408A9
:103A06002100A0000130A2000030A30093318C23D6
:103A16009C31200061082100A100200060082100DF
:103A2600A0009F310E27080022006A082100A2008C
:103A3600A30121082306031D222D200822060319AF
:103A460008002008A20022082200EA002100200C1B
:103A56002200031C8D1103188D150800200066082E
:103A66002100A200A30121082306031D3C2D2008E6
:103A76002206031908002008A20022082000E600FA
:103A86002100200C2200031C8D1203188D1608003D
:103A960000308B1B01302100A2008B13200823006D
:103AA600910021002108230092001513151400002F
:103AB60000002100220C031C8B1303188B17230014
:103AC60014082100A100230013082100A00008000B
:103AD6002100AD01A91F762DA809A909A80A031975
:103AE600A90AAD01AD0A2808A0002908A100A20173
:103AF6008E30AB002B08A3002D08AC002C08A400C8
:103B06009431392421002008A8002108A9002208A0
:103B1600AA0008002100A101A2012208803AA00003
:103B260080302002031D992D0C3021020318080055
:103B360021002108A0000130A035FF3E031D9F2D66
:103B46002035A03E8600023087000030C03F00309E
:103B5600C13FC23FC33F0130A1070030A23D902DB7
:103B6600FF34FF34FF34DF34AE348E3478346734B8
:103B76005B345034483442343C3437343334303494
:103B86002D342A34273425342334213420341E346A
:103B96001D341C341B341A341934183417341634B3
:103BA60015341534143413340F340B3407340734F6
:103BB6000030FB000030FA000030F9000030F80059
:103BC600701CED2D7408F8077508F93D7608FA3D66
:103BD6007708FB3D0130F435F50DF60DF70D890B31
:103BE600EE2D0130F336F20CF10CF00C890BF52DAD
:103BF6007308720471047004031DE32D7B08F3003F
:103C06007A08F2007908F1007808F000080021002F
:103C16000D108D100D118D110D128D120E140E1228
:103C26008E120F108F100F118F110F128F160F1784
:103C36008F171014901423001010901020001010ED
:103C4600901026000C108C100C118C110C128C127A
:103C56000C1728000C1326008D100D119C315D24C5
:103C66009E319031E4208B178B160B110800003023
:103C76002100AB000030AA000030A9000030A800E7
:103C8600201C4D2E2408A8072508A93D2608AA3D74
:103C96002708AB3D0130A435A50DA60DA70D890B50
:103CA6004E2E0130A336A20CA10CA00C890B552E6A
:103CB6002308220421042004031D432E2B08A300FD
:103CC6002A08A2002908A1002808A0000800003040
:103CD6002100B1000030B0000030AF000030AE006F
:103CE6002C08A0002D08A100A201A3010030A70006
:103CF6000030A6000330A500E830A4009E313A2625
:103D06009E3121002308B1002208B0002108AF002F
:103D16002008AE00310830042F042E0403190800D1
:103D2600FF30AE07FF30AF3DFF30B03DFF30B13D55
:103D36008D2E20000E18D02E01302300BE07003035
:103D4600BF3D3F08803A2100A70080302702031DAF
:103D5600AF2E1A3023003E02031C08001930230040
:103D6600BE000030BF0020005503031DBF2ED50145
:103D76009C31FD249E31C92E01302100A700270861
:103D86002000D407033054020318D40190310220D6
:103D96009E3120000E180800CC2E2300BE01BF0164
:103DA60008002100220821042004031DE22E230816
:103DB6008600013087000030C03FC13F080022085E
:103DC6007F39A400A501A435A50D2308860001307E
:103DD60087002408C03F2508C13F210D210D013968
:103DE600A400A50123088600013087002408810469
:103DF600413125088104230886000130870082307E
:103E060081074131FF30813D7F31220880393F38BB
:103E1600A200A113080022000F108F100F118F119E
:103E26000F122B2F22000F14080022008F140800F7
:103E360022000F15080022008F15080022000F1619
:103E4600080022000F148F140F158F150F16080087
:103E560021002108003A0319312F482F2008013A82
:103E66000319152F033A0319182F013A03191B2FAB
:103E7600073A03191E2F013A0319212F033A031992
:103E8600482F623A0319242F482F080000340334C0
:103E960007340A340D341134143417341B341E34E9
:103EA6002134253428342B342F3432343534393404
:103EB6003C343F344334463449344D34503453341F
:103EC60057345A345D34613464349F34A334A63491
:103ED600A934AD34B034B334B734BA34BD34C13494
:103EE600C434C734CB34CE34D134D534D834DB34AF
:103EF600DF34E234E534E934EC34EF34F334F634C9
:103F0600F934FD3400340034FD34F934F634F33436
:103F1600EF34EC34E934E534E234DF34DB34D834DE
:103F2600D534D134CE34CB34C734C434C134BD34A3
:103F3600BA34B734B334B034AD34A934A634A33468
:103F46009F349C3461345D345A345734533450347E
:103F56004D344934463443343F343C3439343534B3
:103F660032342F342B342834253421341E341B3478
:103F76001734143411340D340A340734033400343E
:103F860000340A3414341E34283432343A34423479
:103F96004A34503456345B345F34613463346434A9
:103FA600633461345F345B34563450344A344234BB
:103FB6003A34323428341E3414340A340034F63495
:103FC600EC34E234D834CE34C634BE34B634B034ED
:103FD600AA34A534A1349F349D349C349D349F3437
:103FE600A134A534AA34B034B634BE34C634CE3483
:0A3FF600D834E234EC34F634003421
:020000040001F9
:04000E00E2FFFFDF2F
:00000001FF
